{
  "contractName": "forTest",
  "abi": [
    {
      "constant": false,
      "inputs": [],
      "name": "set",
      "outputs": [],
      "payable": false,
      "stateMutability": "nonpayable",
      "type": "function"
    },
    {
      "constant": true,
      "inputs": [],
      "name": "get",
      "outputs": [
        {
          "name": "",
          "type": "uint256"
        }
      ],
      "payable": false,
      "stateMutability": "view",
      "type": "function"
    }
  ],
  "bytecode": "0x6080604052600160005534801561001557600080fd5b5060c3806100246000396000f3fe6080604052600436106043576000357c0100000000000000000000000000000000000000000000000000000000900480636d4ce63c146048578063b8e010de146070575b600080fd5b348015605357600080fd5b50605a6084565b6040518082815260200191505060405180910390f35b348015607b57600080fd5b506082608d565b005b60008054905090565b600460008190555056fea165627a7a723058202647fdcfc941e009cf8badb672079e90dfe1a252519c5d741b897193dd50c8f50029",
  "source": "// SPDX-License-Identifier: GPL-3.0\r\n\r\npragma solidity >=0.4.22 <0.9.0;\r\n\r\ncontract forTest {\r\n     uint hello=1;\r\n     function set() public  {\r\n         hello=4;\r\n     }\r\n\r\n     function get()public  view returns(uint) {\r\n         return hello;\r\n     }\r\n}",
  "sourcePath": "D:\\Blockchain\\contracts\\forTest.sol",
  "compiler": {
    "name": "solc",
    "version": "0.5.1+commit.c8a2cb62.Emscripten.clang"
  },
  "schemaVersion": "3.4.14",
  "updatedAt": "2023-07-15T09:28:00.798Z",
  "networkType": "ethereum",
  "devdoc": {
    "methods": {}
  },
  "userdoc": {
    "methods": {}
  }
}